{
  "contractName": "Kittycontract",
  "abi": [
    {
      "anonymous": false,
      "inputs": [
        {
          "indexed": true,
          "internalType": "address",
          "name": "from",
          "type": "address"
        },
        {
          "indexed": true,
          "internalType": "address",
          "name": "to",
          "type": "address"
        },
        {
          "indexed": true,
          "internalType": "uint256",
          "name": "tokenId",
          "type": "uint256"
        }
      ],
      "name": "Transfer",
      "type": "event"
    },
    {
      "constant": true,
      "inputs": [
        {
          "internalType": "uint256",
          "name": "",
          "type": "uint256"
        }
      ],
      "name": "addressOfOwnerKitty",
      "outputs": [
        {
          "internalType": "address",
          "name": "",
          "type": "address"
        }
      ],
      "payable": false,
      "stateMutability": "view",
      "type": "function"
    },
    {
      "constant": true,
      "inputs": [],
      "name": "name",
      "outputs": [
        {
          "internalType": "string",
          "name": "",
          "type": "string"
        }
      ],
      "payable": false,
      "stateMutability": "view",
      "type": "function"
    },
    {
      "constant": true,
      "inputs": [],
      "name": "symbol",
      "outputs": [
        {
          "internalType": "string",
          "name": "",
          "type": "string"
        }
      ],
      "payable": false,
      "stateMutability": "view",
      "type": "function"
    },
    {
      "constant": true,
      "inputs": [
        {
          "internalType": "address",
          "name": "owner",
          "type": "address"
        }
      ],
      "name": "balanceOf",
      "outputs": [
        {
          "internalType": "uint256",
          "name": "balance",
          "type": "uint256"
        }
      ],
      "payable": false,
      "stateMutability": "view",
      "type": "function"
    },
    {
      "constant": true,
      "inputs": [],
      "name": "tokenName",
      "outputs": [
        {
          "internalType": "string",
          "name": "tokenName",
          "type": "string"
        }
      ],
      "payable": false,
      "stateMutability": "view",
      "type": "function"
    },
    {
      "constant": true,
      "inputs": [],
      "name": "tokenSymbol",
      "outputs": [
        {
          "internalType": "string",
          "name": "tokenSymbol",
          "type": "string"
        }
      ],
      "payable": false,
      "stateMutability": "view",
      "type": "function"
    },
    {
      "constant": true,
      "inputs": [
        {
          "internalType": "uint256",
          "name": "tokenId",
          "type": "uint256"
        }
      ],
      "name": "ownerOf",
      "outputs": [
        {
          "internalType": "address",
          "name": "owner",
          "type": "address"
        }
      ],
      "payable": false,
      "stateMutability": "view",
      "type": "function"
    },
    {
      "constant": false,
      "inputs": [
        {
          "internalType": "address",
          "name": "to",
          "type": "address"
        },
        {
          "internalType": "uint256",
          "name": "tokenId",
          "type": "uint256"
        }
      ],
      "name": "transfer",
      "outputs": [],
      "payable": false,
      "stateMutability": "nonpayable",
      "type": "function"
    },
    {
      "constant": false,
      "inputs": [
        {
          "internalType": "address",
          "name": "newOwner",
          "type": "address"
        },
        {
          "internalType": "uint256",
          "name": "amount",
          "type": "uint256"
        }
      ],
      "name": "mint",
      "outputs": [],
      "payable": false,
      "stateMutability": "nonpayable",
      "type": "function"
    }
  ],
  "bytecode": "0x608060405234801561001057600080fd5b5061095d806100206000396000f3fe608060405234801561001057600080fd5b50600436106100935760003560e01c80636c02a931116100665780636c02a9311461024557806370a08231146102c85780637b61c3201461032057806395d89b41146103a3578063a9059cbb1461042657610093565b806306fdde03146100985780630e5080591461011b57806340c10f19146101895780636352211e146101d7575b600080fd5b6100a0610474565b6040518080602001828103825283818151815260200191508051906020019080838360005b838110156100e05780820151818401526020810190506100c5565b50505050905090810190601f16801561010d5780820380516001836020036101000a031916815260200191505b509250505060405180910390f35b6101476004803603602081101561013157600080fd5b81019080803590602001909291905050506104ad565b604051808273ffffffffffffffffffffffffffffffffffffffff1673ffffffffffffffffffffffffffffffffffffffff16815260200191505060405180910390f35b6101d56004803603604081101561019f57600080fd5b81019080803573ffffffffffffffffffffffffffffffffffffffff169060200190929190803590602001909291905050506104e0565b005b610203600480360360208110156101ed57600080fd5b8101908080359060200190929190505050610531565b604051808273ffffffffffffffffffffffffffffffffffffffff1673ffffffffffffffffffffffffffffffffffffffff16815260200191505060405180910390f35b61024d61053b565b6040518080602001828103825283818151815260200191508051906020019080838360005b8381101561028d578082015181840152602081019050610272565b50505050905090810190601f1680156102ba5780820380516001836020036101000a031916815260200191505b509250505060405180910390f35b61030a600480360360208110156102de57600080fd5b81019080803573ffffffffffffffffffffffffffffffffffffffff169060200190929190505050610578565b6040518082815260200191505060405180910390f35b6103286105c1565b6040518080602001828103825283818151815260200191508051906020019080838360005b8381101561036857808201518184015260208101905061034d565b50505050905090810190601f1680156103955780820380516001836020036101000a031916815260200191505b509250505060405180910390f35b6103ab6105fe565b6040518080602001828103825283818151815260200191508051906020019080838360005b838110156103eb5780820151818401526020810190506103d0565b50505050905090810190601f1680156104185780820380516001836020036101000a031916815260200191505b509250505060405180910390f35b6104726004803603604081101561043c57600080fd5b81019080803573ffffffffffffffffffffffffffffffffffffffff16906020019092919080359060200190929190505050610637565b005b6040518060400160405280600a81526020017f4372617a7920436174730000000000000000000000000000000000000000000081525081565b60016020528060005260406000206000915054906101000a900473ffffffffffffffffffffffffffffffffffffffff1681565b80600260008473ffffffffffffffffffffffffffffffffffffffff1673ffffffffffffffffffffffffffffffffffffffff168152602001908152602001600020600082825401925050819055505050565b6000809050919050565b60606040518060400160405280600a81526020017f4372617a79204361747300000000000000000000000000000000000000000000815250905090565b6000600260008373ffffffffffffffffffffffffffffffffffffffff1673ffffffffffffffffffffffffffffffffffffffff168152602001908152602001600020549050919050565b60606040518060400160405280600381526020017f4343530000000000000000000000000000000000000000000000000000000000815250905090565b6040518060400160405280600381526020017f434353000000000000000000000000000000000000000000000000000000000081525081565b600033905060008390508173ffffffffffffffffffffffffffffffffffffffff163373ffffffffffffffffffffffffffffffffffffffff16146106c5576040517f08c379a00000000000000000000000000000000000000000000000000000000081526004018080602001828103825260238152602001806109066023913960400191505060405180910390fd5b600073ffffffffffffffffffffffffffffffffffffffff168473ffffffffffffffffffffffffffffffffffffffff161415610768576040517f08c379a000000000000000000000000000000000000000000000000000000000815260040180806020018281038252601b8152602001807f43616e6e6f742073656e6420746f207a65726f2061646472657373000000000081525060200191505060405180910390fd5b3073ffffffffffffffffffffffffffffffffffffffff168473ffffffffffffffffffffffffffffffffffffffff16141561080a576040517f08c379a000000000000000000000000000000000000000000000000000000000815260040180806020018281038252601f8152602001807f43616e6e6f742073656e6420746f20636f6e747261637420616464726573730081525060200191505060405180910390fd5b82600260008473ffffffffffffffffffffffffffffffffffffffff1673ffffffffffffffffffffffffffffffffffffffff1681526020019081526020016000206000828254039250508190555082600260008373ffffffffffffffffffffffffffffffffffffffff1673ffffffffffffffffffffffffffffffffffffffff16815260200190815260200160002060008282540192505081905550828173ffffffffffffffffffffffffffffffffffffffff168373ffffffffffffffffffffffffffffffffffffffff167fddf252ad1be2c89b69c2b068fc378daa952ba7f163c4a11628f55a4df523b3ef60405160405180910390a45050505056fe596f7520617265206e6f7420746865206f776e6572206f662074686973204b69747479a265627a7a723158209ebe0c5cac1dbf180bda154f956246e5539addbcab6befe68cd4b2ed7bf1fd9864736f6c63430005100032",
  "source": "pragma solidity ^0.5.12;\r\n\r\n//gebleven bij contract address, address this klopt niet\r\n// daarna 0 address zien te verfieren\r\n//ownerOf functie werkt niet, komt de hele tijd een 0 address uit\r\n\r\n\r\n\r\nimport \"./IERC721.sol\";\r\n\r\ncontract Kittycontract is IERC721 {\r\n       \r\n  event Transfer(address indexed from, address indexed to, uint256 indexed tokenId);\r\n\r\n  \r\n    string public constant name = \"Crazy Cats\";\r\n    string public constant symbol = \"CCS\";\r\n\r\n\r\n    // uint256 public totalTokenCountOwner[0] += 100;\r\n   \r\n\r\n    struct Kitty {\r\n        uint256 genes;\r\n        uint64  birthTime;\r\n        uint32  mumId;\r\n        uint32  dadId;\r\n        uint16  generation;\r\n                       \r\n       }\r\n\r\n      Kitty [] Kitties; \r\n\r\n   mapping(uint256 => address) public addressOfOwnerKitty;\r\n   mapping(address => uint256) private totalTokenCountOwner;    \r\n   mapping (uint256 => address) private _tokenOwner;\r\n \r\n\r\n   function balanceOf(address owner) external view returns (uint256 balance) {\r\n            return totalTokenCountOwner[owner];\r\n            \r\n            }   \r\n\r\n    //function totalSupply() external view returns (uint256 total) {\r\n    //    return Kitties.lenght; moet iets zijn met .lenght\r\n   // }\r\n                        \r\n    function tokenName() external view returns (string memory tokenName) {\r\n         return name;\r\n    \r\n        }\r\n    function tokenSymbol() external view returns (string memory tokenSymbol) {\r\n        return symbol;\r\n\r\n        }\r\n    function ownerOf(uint256 tokenId) external view returns (address owner)  {\r\n       // address owner = _tokenOwner[tokenId];\r\n         //return _tokenOwner;\r\n\r\n\r\n      //  require (owner !=address(0));\r\n       return owner;\r\n\r\n    }\r\n   \r\n   function transfer(address to, uint256 tokenId) external {\r\n       \r\n       address currentOwner = msg.sender;\r\n       address newOwner = to;        \r\n\r\n        require (msg.sender ==  currentOwner, \"You are not the owner of this Kitty\");   \r\n        require (to != address(0), \"Cannot send to zero address\");\r\n        require (to != address(this), \"Cannot send to contract address\");\r\n\r\n        totalTokenCountOwner[currentOwner] -= tokenId;  \r\n        totalTokenCountOwner[newOwner] += tokenId;\r\n\r\n        emit Transfer(currentOwner, newOwner, tokenId);\r\n           \r\n      }   \r\n\r\n  function mint(address newOwner, uint amount) public {\r\n  \r\n        totalTokenCountOwner[newOwner] += amount;\r\n\r\n}\r\n}",
  "sourcePath": "C:/Users/opasu/Documents/GitHub/academy-kitties-template/contracts/Kittycontract.sol",
  "compiler": {
    "name": "solc",
    "version": "0.5.16+commit.9c3226ce.Emscripten.clang"
  },
  "schemaVersion": "3.2.5",
  "updatedAt": "2020-09-28T11:59:59.265Z",
  "networkType": "ethereum",
  "devdoc": {
    "methods": {}
  },
  "userdoc": {
    "methods": {}
  }
}