{
  "contractName": "Kittycontract",
  "abi": [
    {
      "anonymous": false,
      "inputs": [
        {
          "indexed": false,
          "internalType": "address",
          "name": "owner",
          "type": "address"
        },
        {
          "indexed": false,
          "internalType": "uint256",
          "name": "kittenId",
          "type": "uint256"
        },
        {
          "indexed": false,
          "internalType": "uint256",
          "name": "mumId",
          "type": "uint256"
        },
        {
          "indexed": false,
          "internalType": "uint256",
          "name": "dadId",
          "type": "uint256"
        },
        {
          "indexed": false,
          "internalType": "uint256",
          "name": "genes",
          "type": "uint256"
        },
        {
          "indexed": false,
          "internalType": "uint256",
          "name": "generation",
          "type": "uint256"
        }
      ],
      "name": "Birth",
      "type": "event"
    },
    {
      "anonymous": false,
      "inputs": [
        {
          "indexed": true,
          "internalType": "address",
          "name": "from",
          "type": "address"
        },
        {
          "indexed": true,
          "internalType": "address",
          "name": "to",
          "type": "address"
        },
        {
          "indexed": true,
          "internalType": "uint256",
          "name": "tokenId",
          "type": "uint256"
        }
      ],
      "name": "Transfer",
      "type": "event"
    },
    {
      "constant": true,
      "inputs": [],
      "name": "name",
      "outputs": [
        {
          "internalType": "string",
          "name": "",
          "type": "string"
        }
      ],
      "payable": false,
      "stateMutability": "view",
      "type": "function"
    },
    {
      "constant": true,
      "inputs": [],
      "name": "owner",
      "outputs": [
        {
          "internalType": "address",
          "name": "",
          "type": "address"
        }
      ],
      "payable": false,
      "stateMutability": "view",
      "type": "function"
    },
    {
      "constant": true,
      "inputs": [],
      "name": "symbol",
      "outputs": [
        {
          "internalType": "string",
          "name": "",
          "type": "string"
        }
      ],
      "payable": false,
      "stateMutability": "view",
      "type": "function"
    },
    {
      "constant": true,
      "inputs": [
        {
          "internalType": "uint256",
          "name": "",
          "type": "uint256"
        }
      ],
      "name": "tokenOwner",
      "outputs": [
        {
          "internalType": "address",
          "name": "",
          "type": "address"
        }
      ],
      "payable": false,
      "stateMutability": "view",
      "type": "function"
    },
    {
      "constant": false,
      "inputs": [
        {
          "internalType": "uint256",
          "name": "_genes",
          "type": "uint256"
        }
      ],
      "name": "createKittyGen0",
      "outputs": [],
      "payable": false,
      "stateMutability": "nonpayable",
      "type": "function"
    },
    {
      "constant": true,
      "inputs": [
        {
          "internalType": "uint256",
          "name": "tokenId",
          "type": "uint256"
        }
      ],
      "name": "getKitty",
      "outputs": [
        {
          "internalType": "uint256",
          "name": "genes",
          "type": "uint256"
        },
        {
          "internalType": "uint256",
          "name": "birthTime",
          "type": "uint256"
        },
        {
          "internalType": "uint256",
          "name": "mumId",
          "type": "uint256"
        },
        {
          "internalType": "uint256",
          "name": "dadId",
          "type": "uint256"
        },
        {
          "internalType": "uint256",
          "name": "generation",
          "type": "uint256"
        }
      ],
      "payable": false,
      "stateMutability": "view",
      "type": "function"
    },
    {
      "constant": true,
      "inputs": [
        {
          "internalType": "address",
          "name": "owner",
          "type": "address"
        }
      ],
      "name": "balanceOf",
      "outputs": [
        {
          "internalType": "uint256",
          "name": "balance",
          "type": "uint256"
        }
      ],
      "payable": false,
      "stateMutability": "view",
      "type": "function"
    },
    {
      "constant": true,
      "inputs": [],
      "name": "totalSupply",
      "outputs": [
        {
          "internalType": "uint256",
          "name": "total",
          "type": "uint256"
        }
      ],
      "payable": false,
      "stateMutability": "view",
      "type": "function"
    },
    {
      "constant": true,
      "inputs": [],
      "name": "tokenName",
      "outputs": [
        {
          "internalType": "string",
          "name": "tokenName",
          "type": "string"
        }
      ],
      "payable": false,
      "stateMutability": "view",
      "type": "function"
    },
    {
      "constant": true,
      "inputs": [],
      "name": "tokenSymbol",
      "outputs": [
        {
          "internalType": "string",
          "name": "tokenSymbol",
          "type": "string"
        }
      ],
      "payable": false,
      "stateMutability": "view",
      "type": "function"
    },
    {
      "constant": true,
      "inputs": [
        {
          "internalType": "uint256",
          "name": "tokenId",
          "type": "uint256"
        }
      ],
      "name": "ownerOf",
      "outputs": [
        {
          "internalType": "address",
          "name": "owner",
          "type": "address"
        }
      ],
      "payable": false,
      "stateMutability": "view",
      "type": "function"
    },
    {
      "constant": false,
      "inputs": [
        {
          "internalType": "address",
          "name": "to",
          "type": "address"
        },
        {
          "internalType": "uint256",
          "name": "tokenId",
          "type": "uint256"
        }
      ],
      "name": "transfer",
      "outputs": [],
      "payable": false,
      "stateMutability": "nonpayable",
      "type": "function"
    }
  ],
  "bytecode": "0x6080604052336000806101000a81548173ffffffffffffffffffffffffffffffffffffffff021916908373ffffffffffffffffffffffffffffffffffffffff160217905550611266806100536000396000f3fe608060405234801561001057600080fd5b50600436106100b45760003560e01c80637b61c320116100715780637b61c320146101a35780638da5cb5b146101c157806395d89b41146101df578063a9059cbb146101fd578063d5a776ca14610219578063e98b7f4d14610235576100b4565b806306fdde03146100b957806318160ddd146100d75780631caaa487146100f55780636352211e146101255780636c02a9311461015557806370a0823114610173575b600080fd5b6100c1610269565b6040516100ce919061101c565b60405180910390f35b6100df6102a2565b6040516100ec91906110e0565b60405180910390f35b61010f600480360361010a9190810190610dc1565b6102af565b60405161011c9190610fa0565b60405180910390f35b61013f600480360361013a9190810190610dc1565b6102e2565b60405161014c9190610fa0565b60405180910390f35b61015d61031f565b60405161016a919061103e565b60405180910390f35b61018d60048036036101889190810190610d5c565b61035c565b60405161019a91906110e0565b60405180910390f35b6101ab6103a5565b6040516101b8919061103e565b60405180910390f35b6101c96103e2565b6040516101d69190610fa0565b60405180910390f35b6101e7610407565b6040516101f4919061101c565b60405180910390f35b61021760048036036102129190810190610d85565b610440565b005b610233600480360361022e9190810190610dc1565b6107f0565b005b61024f600480360361024a9190810190610dc1565b6108bd565b6040516102609594939291906110fb565b60405180910390f35b6040518060400160405280600a81526020017f4372617a7920436174730000000000000000000000000000000000000000000081525081565b6000600180549050905090565b60036020528060005260406000206000915054906101000a900473ffffffffffffffffffffffffffffffffffffffff1681565b60006003600083815260200190815260200160002060009054906101000a900473ffffffffffffffffffffffffffffffffffffffff169050919050565b60606040518060400160405280600a81526020017f4372617a79204361747300000000000000000000000000000000000000000000815250905090565b6000600260008373ffffffffffffffffffffffffffffffffffffffff1673ffffffffffffffffffffffffffffffffffffffff168152602001908152602001600020549050919050565b60606040518060400160405280600381526020017f4343530000000000000000000000000000000000000000000000000000000000815250905090565b6000809054906101000a900473ffffffffffffffffffffffffffffffffffffffff1681565b6040518060400160405280600381526020017f434353000000000000000000000000000000000000000000000000000000000081525081565b600073ffffffffffffffffffffffffffffffffffffffff166003600083815260200190815260200160002060009054906101000a900473ffffffffffffffffffffffffffffffffffffffff1673ffffffffffffffffffffffffffffffffffffffff1614156104e3576040517f08c379a00000000000000000000000000000000000000000000000000000000081526004016104da90611080565b60405180910390fd5b3373ffffffffffffffffffffffffffffffffffffffff166003600083815260200190815260200160002060009054906101000a900473ffffffffffffffffffffffffffffffffffffffff1673ffffffffffffffffffffffffffffffffffffffff1614610584576040517f08c379a000000000000000000000000000000000000000000000000000000000815260040161057b906110c0565b60405180910390fd5b600073ffffffffffffffffffffffffffffffffffffffff168273ffffffffffffffffffffffffffffffffffffffff1614156105f4576040517f08c379a00000000000000000000000000000000000000000000000000000000081526004016105eb906110a0565b60405180910390fd5b3073ffffffffffffffffffffffffffffffffffffffff168273ffffffffffffffffffffffffffffffffffffffff161415610663576040517f08c379a000000000000000000000000000000000000000000000000000000000815260040161065a90611060565b60405180910390fd5b3373ffffffffffffffffffffffffffffffffffffffff166003600083815260200190815260200160002060009054906101000a905050506000829050806003600084815260200190815260200160002060006101000a81548173ffffffffffffffffffffffffffffffffffffffff021916908373ffffffffffffffffffffffffffffffffffffffff160217905550600260008473ffffffffffffffffffffffffffffffffffffffff1673ffffffffffffffffffffffffffffffffffffffff16815260200190815260200160002060008154809291906001019190505550600260003373ffffffffffffffffffffffffffffffffffffffff1673ffffffffffffffffffffffffffffffffffffffff1681526020019081526020016000206000815480929190600190039190505550818173ffffffffffffffffffffffffffffffffffffffff163373ffffffffffffffffffffffffffffffffffffffff167fddf252ad1be2c89b69c2b068fc378daa952ba7f163c4a11628f55a4df523b3ef60405160405180910390a4505050565b6000809054906101000a900473ffffffffffffffffffffffffffffffffffffffff1673ffffffffffffffffffffffffffffffffffffffff163373ffffffffffffffffffffffffffffffffffffffff161461084957600080fd5b336000806101000a81548173ffffffffffffffffffffffffffffffffffffffff021916908373ffffffffffffffffffffffffffffffffffffffff1602179055506108b96000806000846000809054906101000a900473ffffffffffffffffffffffffffffffffffffffff166109db565b5050565b6000806000806000600186815481106108d257fe5b906000526020600020906002020160000154600187815481106108f157fe5b906000526020600020906002020160010160009054906101000a900467ffffffffffffffff166001888154811061092457fe5b906000526020600020906002020160010160089054906101000a900463ffffffff166001898154811061095357fe5b9060005260206000209060020201600101600c9054906101000a900463ffffffff1660018a8154811061098257fe5b906000526020600020906002020160010160109054906101000a900461ffff168367ffffffffffffffff1693508263ffffffff1692508163ffffffff1691508061ffff1690509450945094509450945091939590929450565b60006109e5610ce9565b6040518060a001604052808581526020014267ffffffffffffffff1681526020018863ffffffff1681526020018763ffffffff1681526020018661ffff168152509050600060018083908060018154018082558091505090600182039060005260206000209060020201600090919290919091506000820151816000015560208201518160010160006101000a81548167ffffffffffffffff021916908367ffffffffffffffff16021790555060408201518160010160086101000a81548163ffffffff021916908363ffffffff160217905550606082015181600101600c6101000a81548163ffffffff021916908363ffffffff16021790555060808201518160010160106101000a81548161ffff021916908361ffff16021790555050500390507fa2950fd8c03e7518275ee57e05ca76c671969b5445b12b1aeea4b0b30195e5df84828a8a898b604051610b4196959493929190610fbb565b60405180910390a1610b5560008583610b63565b809250505095945050505050565b600260008373ffffffffffffffffffffffffffffffffffffffff1673ffffffffffffffffffffffffffffffffffffffff16815260200190815260200160002060008154809291906001019190505550816003600083815260200190815260200160002060006101000a81548173ffffffffffffffffffffffffffffffffffffffff021916908373ffffffffffffffffffffffffffffffffffffffff160217905550600073ffffffffffffffffffffffffffffffffffffffff168373ffffffffffffffffffffffffffffffffffffffff1614610c8957600260008473ffffffffffffffffffffffffffffffffffffffff1673ffffffffffffffffffffffffffffffffffffffff16815260200190815260200160002060008154809291906001900391905055505b808273ffffffffffffffffffffffffffffffffffffffff168473ffffffffffffffffffffffffffffffffffffffff167fddf252ad1be2c89b69c2b068fc378daa952ba7f163c4a11628f55a4df523b3ef60405160405180910390a4505050565b6040518060a0016040528060008152602001600067ffffffffffffffff168152602001600063ffffffff168152602001600063ffffffff168152602001600061ffff1681525090565b600081359050610d41816111f5565b92915050565b600081359050610d568161120c565b92915050565b600060208284031215610d6e57600080fd5b6000610d7c84828501610d32565b91505092915050565b60008060408385031215610d9857600080fd5b6000610da685828601610d32565b9250506020610db785828601610d47565b9150509250929050565b600060208284031215610dd357600080fd5b6000610de184828501610d47565b91505092915050565b610df381611175565b82525050565b6000610e0482611159565b610e0e8185611164565b9350610e1e8185602086016111b1565b610e27816111e4565b840191505092915050565b6000610e3d8261114e565b610e478185611164565b9350610e578185602086016111b1565b610e60816111e4565b840191505092915050565b6000610e78601f83611164565b91507f43616e6e6f742073656e6420746f20636f6e74726163742061646472657373006000830152602082019050919050565b6000610eb8601983611164565b91507f5468697320746f6b656e20646f6573206e6f74206578697374000000000000006000830152602082019050919050565b6000610ef8601b83611164565b91507f43616e6e6f742073656e6420746f207a65726f206164647265737300000000006000830152602082019050919050565b6000610f38602383611164565b91507f596f7520617265206e6f7420746865206f776e6572206f662074686973204b6960008301527f74747900000000000000000000000000000000000000000000000000000000006020830152604082019050919050565b610f9a816111a7565b82525050565b6000602082019050610fb56000830184610dea565b92915050565b600060c082019050610fd06000830189610dea565b610fdd6020830188610f91565b610fea6040830187610f91565b610ff76060830186610f91565b6110046080830185610f91565b61101160a0830184610f91565b979650505050505050565b600060208201905081810360008301526110368184610e32565b905092915050565b600060208201905081810360008301526110588184610df9565b905092915050565b6000602082019050818103600083015261107981610e6b565b9050919050565b6000602082019050818103600083015261109981610eab565b9050919050565b600060208201905081810360008301526110b981610eeb565b9050919050565b600060208201905081810360008301526110d981610f2b565b9050919050565b60006020820190506110f56000830184610f91565b92915050565b600060a0820190506111106000830188610f91565b61111d6020830187610f91565b61112a6040830186610f91565b6111376060830185610f91565b6111446080830184610f91565b9695505050505050565b600081519050919050565b600081519050919050565b600082825260208201905092915050565b600061118082611187565b9050919050565b600073ffffffffffffffffffffffffffffffffffffffff82169050919050565b6000819050919050565b60005b838110156111cf5780820151818401526020810190506111b4565b838111156111de576000848401525b50505050565b6000601f19601f8301169050919050565b6111fe81611175565b811461120957600080fd5b50565b611215816111a7565b811461122057600080fd5b5056fea365627a7a723158200b1e42a7e26894d0d1fb7c61367b48f8af714763aedfc6208f12486d1b69f1b46c6578706572696d656e74616cf564736f6c634300050c0040",
  "source": "pragma solidity ^0.5.12;\r\npragma experimental ABIEncoderV2;\r\nimport \"./IERC721.sol\";\r\nimport \"./Ownable.sol\";\r\n\r\ncontract Kittycontract is IERC721, Ownable {\r\n\r\n      event Birth(\r\n        address owner,\r\n        uint256 kittenId,\r\n        uint256 mumId,\r\n        uint256 dadId,\r\n        uint256 genes,\r\n        uint256 generation\r\n\r\n    );\r\n     event Transfer(\r\n        address indexed from,\r\n        address indexed to,\r\n        uint256 indexed tokenId\r\n    );\r\n\r\n\r\n    string public constant name = \"Crazy Cats\";\r\n    string public constant symbol = \"CCS\";\r\n\r\n    struct Kitty {\r\n        uint256 genes;\r\n        uint64 birthTime;\r\n        uint32 mumId;\r\n        uint32 dadId;\r\n        uint16 generation;\r\n    }\r\n\r\n    Kitty[] Kitties;\r\n\r\n    mapping(address => uint256) private totalTokenCountOwner;\r\n    mapping(uint256 => address) public tokenOwner;\r\n\r\n\r\n    function createKittyGen0(uint256 _genes) public onlyOwner {\r\n        \r\n        owner = msg.sender;\r\n        \r\n       _createKitty(0, 0, 0, _genes, owner);\r\n   //return  _genes\r\n    \r\n\r\n}\r\n\r\n function _createKitty(\r\n        uint256 _mumId,\r\n        uint256 _dadId,\r\n        uint256 _generation,\r\n        uint256 _genes,\r\n        address _owner\r\n    ) private returns (uint256) {\r\n        Kitty memory _kitty = Kitty({\r\n            genes: _genes,\r\n            birthTime: uint64(now),\r\n            mumId: uint32(_mumId),\r\n            dadId: uint32(_dadId),\r\n            generation: uint16(_generation)\r\n        });\r\n\r\n        uint256 newKittenId = Kitties.push(_kitty) - 1;\r\n\r\n        emit Birth(_owner, newKittenId, _mumId, _dadId, _genes, _generation);\r\n\r\n        _transfer(address(0), _owner, newKittenId);\r\n   \r\n\r\n        return newKittenId;\r\n    }\r\n    \r\n\r\nfunction getKitty(uint256 tokenId) public view returns(\r\n        uint256 genes,\r\n        uint256 birthTime,\r\n        uint256 mumId,\r\n        uint256 dadId,\r\n        uint256 generation\r\n     )        \r\n\r\n        \r\n         {\r\n\r\n         return (Kitties[tokenId].genes, Kitties[tokenId].birthTime, Kitties[tokenId].mumId, Kitties[tokenId].dadId, Kitties[tokenId].generation);\r\n}\r\n\r\n  \r\n    function balanceOf(address owner) external view returns (uint256 balance) {\r\n        return totalTokenCountOwner[owner];\r\n    }\r\n\r\n    function totalSupply() external view returns (uint256 total) {\r\n        return Kitties.length;\r\n    }\r\n\r\n    function tokenName() external view returns (string memory tokenName) {\r\n        return name;\r\n    }\r\n\r\n    function tokenSymbol() external view returns (string memory tokenSymbol) {\r\n        return symbol;\r\n    }\r\n\r\n    function ownerOf(uint256 tokenId) external view returns (address owner) {\r\n        return tokenOwner[tokenId];\r\n    }\r\n\r\n    function transfer(address to, uint256 tokenId) external {\r\n        require(tokenOwner[tokenId] != address(0), \"This token does not exist\");\r\n        require(\r\n            tokenOwner[tokenId] == msg.sender,\r\n            \"You are not the owner of this Kitty\"\r\n        );\r\n\r\n        require(to != address(0), \"Cannot send to zero address\");\r\n        require(to != address(this), \"Cannot send to contract address\");\r\n\r\n        tokenOwner[tokenId] == msg.sender;\r\n        address newOwner = to;\r\n\r\n        //set new owner token\r\n        tokenOwner[tokenId] = newOwner;\r\n\r\n        totalTokenCountOwner[to] ++;\r\n\r\n        totalTokenCountOwner[msg.sender] --;\r\n    \r\n        emit Transfer(msg.sender, newOwner, tokenId);\r\n    }\r\n\r\n       function _transfer(\r\n        address _from,\r\n        address _to,\r\n        uint256 _tokenId\r\n    ) internal {\r\n        totalTokenCountOwner[_to]++;\r\n\r\n        tokenOwner[_tokenId] = _to;\r\n\r\n        if (_from != address(0)) {\r\n            totalTokenCountOwner[_from]--;\r\n        }\r\n\r\n        emit Transfer(_from, _to, _tokenId);\r\n    }\r\n\r\n  \r\n    }\r\n\r\n",
  "sourcePath": "C:/Users/opasu/Documents/GitHub/academy-kitties-template/contracts/Kittycontract.sol",
  "compiler": {
    "name": "solc",
    "version": "0.5.12+commit.7709ece9.Emscripten.clang"
  },
  "schemaVersion": "3.2.5",
  "updatedAt": "2020-10-06T12:45:37.686Z",
  "networkType": "ethereum",
  "devdoc": {
    "methods": {}
  },
  "userdoc": {
    "methods": {}
  }
}